:020000040800F2
:10000000B0080020ED010008073C0008713200082C
:10001000053C0008B9080008F54900080000000088
:10002000000000000000000000000000C13F0008C8
:100030008309000800000000093C0008C33F0008D5
:10004000070200080702000807020008070200086C
:10005000070200080702000807020008070200085C
:10006000070200080702000807020008BD08000890
:10007000C9080008D50800080702000807020008A0
:1000800007020008000000009D07000807020008A2
:10009000070200080702000807020008070200081C
:1000A00007020008594000083D4000080702000808
:1000B00007020008070200080702000807020008FC
:1000C00007020008070200080702000807020008EC
:1000D00007020008070200080702000807020008DC
:1000E00007020008070200080702000807020008CC
:1000F00007020008070200080702000800000000CD
:1001000000000000070200080000000007020008CD
:1001100007020008000000000702000807020008AC
:10012000070200080702000807020008070200088B
:10013000070200080000000000000000070200089D
:10014000070200080702000800000000000000008D
:10015000000000000000000000000000000000009F
:10016000000000000000000000000000070200087E
:10017000070200080000000000000000000000006E
:10018000000000000702000800000000000000005E
:10019000000000000000000000000000000000005F
:1001A000000000000000000007020008070200082D
:1001B000070200080702000807020008000000000C
:1001C000000000000702000800000000000000001E
:1001D0000702000807020008DFF80CD000F05CFA04
:1001E00000480047E1560008B00800200648804754
:1001F00006480047FEE7FEE7FEE7FEE7FEE7FEE70C
:10020000FEE7FEE7FEE7FEE72D400008D901000803
:100210002DE9F05F0546002092469B46884606463B
:10022000814640241BE0284641464746224600F0CE
:100230006AF853465A46C01A914110D311461846DF
:10024000224600F051F82D1A67EB01084F4622466E
:100250000120002100F048F817EB00094E41201E54
:10026000A4F10104DFDC484631462A464346BDE896
:10027000F09FD2B201E000F8012B491EFBD270477B
:100280000022F6E710B513460A4604461946FFF762
:10029000F0FF204610BD00F0004230F000400AD0D0
:1002A000C10D01F56071C0F3160042EA0151C208A8
:1002B00040071143704700200146704730B50B4698
:1002C000014600202022012409E021FA02F59D4286
:1002D00005D303FA02F5491B04FA02F52844151E5A
:1002E000A2F10102F1DC30BD202A04DB203A00FA41
:1002F00002F1002070479140C2F1200320FA03F37D
:10030000194390407047202A04DB203A21FA02F07A
:100310000021704721FA02F3D040C2F1200291403F
:100320000843194670472DE9FE4F804681EA0300D5
:10033000C00F0C46009021F0004123F00045B8EBBF
:100340000200A94105D24046214690461C460B4674
:10035000024623F00040104347D0270DC7F30A00A0
:10036000C3F30A510290401A019040286BDAC3F39C
:10037000130040F4801B0098924620B10023D2EB7A
:10038000030A63EB0B0B01985946C0F1400250463B
:10039000FFF7AAFF06460D4650465946019A00F05F
:1003A0008DF910EB08006141002487EA115284EABC
:1003B000E7731A4340D0009A62B3019A012A4FEAC8
:1003C000075215DC001B61EB02014FF0004202EA0C
:1003D0000752CDE90042001C41F5801132462B4600
:1003E00000F08DF903B0BDE8F08F40462146F9E7F3
:1003F000001B61EB0201001C41F5801300185B41FA
:100400002018A2F5001747EB030140EAD570B61992
:100410006D4111E06D084FEA360645EAC0754FEAB6
:100420000752001B61EB0201001C41F580114908D5
:100430004FEA30000019514132462B4603B0BDE867
:10044000F04F00F04DB90098012240000023D0EB9E
:10045000020263EBE073009821464FEAE074B8EBC8
:10046000000061EB0401E9E783F000435BE781F002
:10047000004158E72DE9FE4F81EA030404F00044EF
:1004800021F0004100944FF0000B23F0004350EAAC
:1004900001045ED052EA03045BD0C3F30A54C1F3F3
:1004A0000A552C44A4F2F3340194A0FB0254C1F386
:1004B000130141F48011C3F3130343F4801301FBD0
:1004C000024400FB034E840A970A44EA815447EA37
:1004D0008357A4FB076802958D0A05FB07854FEA41
:1004E000932C04FB0C542705029D4FEA065847EA5B
:1004F0001637B5EB08056EEB070C870E920E47EA30
:10050000811742EA8312A7FB0201B6EB0B0164EBF1
:1005100000042B0D43EA0C335E1844EB1C50DA4602
:100520005146E7FB0201C5F313044FEA0B3343EADC
:1005300014534FEA0432019C43EA0603A4F10C046D
:100540000294009CCDE900B400F0D9F803B0BDE8F6
:10055000F08F00200146F9E72DE9F04D81EA030410
:1005600004F0004B21F0004514464FF0000A23F040
:10057000004150EA050220D054EA01021DD0C5F323
:100580000A570246C5F31303C1F31300C1F30A5619
:1005900040F4801543F48013A7EB0608101BD646E1
:1005A00008F2FD3873EB050002D308F1010801E001
:1005B00092185B41B8F1000F03DA00200146BDE854
:1005C000F08D00204FF48011064684460EE0171B84
:1005D00073EB050705D3121B63EB050306434CEAD7
:1005E000010C49084FEA300092185B4150EA0107BC
:1005F000EDD152EA030012D082EA040083EA050139
:10060000084305D0101BAB4106D20122002306E0AF
:1006100000224FF0004302E06FF0010253101AEB8A
:1006200006004CEB085110EB0A0041EB0B01BDE852
:10063000F04D00F055B8C1F30A52C1F3130140F276
:10064000FF3341F480119A4202DA002001467047DC
:1006500040F233439A42A2F2334202DC5242FFF7A5
:1006600052BEFFF741BE000030B5041E71F1000418
:1006700004DB4FF00044404264EB0101141E73F1AF
:10068000000405DB1C464FF00043524263EB0403B9
:10069000994208BF904230BD064C074D06E0E06825
:1006A00040F0010394E8070098471034AC42F6D3B9
:1006B000FFF796FDC0690008E0690008202A06DB04
:1006C000CB17203A41FA02F043EAE07306E041FA20
:1006D00002F3D040C2F1200291400843194670470E
:1006E00010B5141E73F1000408DA401C41F100013A
:1006F00092185B411A4301D120F0010010BD2DE991
:10070000F04D92469B4611B1B1FA81F202E0B0FA87
:1007100080F220329046FFF7E7FD04460F4640EA9C
:100720000A0041EA0B0153465A46084313D01146CA
:1007300053EA010019D0C8F140025046FFF7E3FD2B
:1007400005460E46504659464246FFF7CDFD084342
:1007500005D0012004E020463946BDE8F08D002098
:10076000054346EAE0762C4337430A986305E40ADA
:10077000A0EB08000022FD0A44EA47540A3002D5E3
:1007800000200146E9E7010510196941DDE9084546
:1007900000196941BDE8F04DA2E7000010B504481A
:1007A00000F088FBBDE81040024800F083BB000069
:1007B0003C000020A800002010B5846AE16D11F013
:1007C000500F06D0E16DC90625D5204600F070FB1C
:1007D00010BDE06D40F40070E06520680168090715
:1007E00016D502F0FFFF78B12068C06880040028A9
:1007F0000ADBE06D20F48070E065E06DC00403D496
:10080000E06D40F00100E065204600F04FFB10BDB8
:10081000C0688007EBE7616D496BBDE81040084791
:1008200010B5806AC16D41F04001C165016E41F0B3
:100830000401016600F03CFB10BD10B5806A00F0B9
:1008400036FB10BD70B504460068816811F0010FD9
:100850002DD18168174A11421AD18168D5432940A8
:10086000491C816001F088F806461BE0816811F0A0
:10087000010F03D181682940491C816001F07CF897
:10088000801B02280ED920680068C043C00709D029
:10089000E06D40F01000E065206E40F00100206641
:1008A000012070BD20680168C943C907DED100205E
:1008B00070BD00003F000080FEE70000014800F02E
:1008C00057BE000048030020014800F051BE000060
:1008D00014010020014800F04BBE0000740100200C
:1008E0000D4902688A4201D20C4901E00B492031CE
:1008F000D2B21423083AB2FBF3F2436C02F01F02A7
:1009000023F003031944816404498031C164012147
:100910009140016570470000080402400008024051
:100920000179074A02EB81024265054A4432491EB9
:10093000826501F01F0201219140C16570470000EE
:10094000FC08024030B5D0E913456560446D14B130
:10095000D0E91645656090F8444004F01F05012475
:10096000AC40056C6C60046863608368102B03689E
:1009700003D099600068C26030BD9A600068C160B1
:1009800030BD7047002240F6B83306E00021491C14
:1009900089B29942FBD3521C92B28242F6D370477D
:1009A00072B6FEE7704770477047704770470000A7
:1009B0002DE9F047044690F858009CB00E464FF0E1
:1009C0000009012815D0012084F85800002517954A
:1009D000189520684FF0A04840450ED1284F009749
:1009E000384602F0FBFE8246206802F0F7FE60B156
:1009F0000EE002201CB0BDE8F087E06D40F0200062
:100A0000E06584F858500120F4E7BAF1000F09D0EE
:100A1000E06D40F02000E0654FF0010984F8585087
:100A20004846E7E71748326840F61F71002A826897
:100A300022F4604216D094F8383042EA43327368A8
:100A40001A438260D8F80820BB6802F0010203F064
:100A500001031A43E2D1B36832681A4383688B43B7
:100A60001A430BE08260D8F80820BB6802F001024C
:100A700003F001031A43D1D182688A438260CDE733
:100A800000010050000300502DE9F84F00270446F4
:100A9000009790F85800DFF8E0930D46B84601281B
:100AA00011D0012684F85860206802F093FE60B1EE
:100AB000E06D40F02000E0655FF0010784F85880A9
:100AC0003846BDE8F88F0220FBE7D5E900210C236A
:100AD000206803EA91131844036B01F01F014FF0E3
:100AE0001F0C0CFA01FCC2F3846223EA0C038A4057
:100AF00013430363206802F06DFE8246206802F013
:100B000065FE5AEA00003CD1AA6829682068B2F163
:100B1000004F37D002F06EFE2068416921F000419D
:100B2000416120686969C268C2F3C1025200914004
:100B30002A69042A31D000EB82002B68026EDFF8AC
:100B40003CC303F0F84302EA0C020B431A4342F0A1
:100B50000041016620682A69A96900EB8200026EE3
:100B600022F080720A430266297F226828690129DF
:100B700010D0002102EB8000026E22F000720A43C6
:100B800002667DE0002202F035FE2068416941F0F6
:100B90000041C5E74FF00071ECE7002102F010FEC4
:100BA000400320684FF0000172D002F009FE90FA75
:100BB000A0F0B0FA80F1286842036ED090FAA0F05D
:100BC000B0FA80F0814204D100221146206802F080
:100BD00020FE0121206802F0F3FD400320684FF061
:100BE00001015DD002F0ECFD90FAA0F0B0FA80F1C6
:100BF0002868420359D090FAA0F0B0FA80F0814200
:100C000004D100220121206802F003FE02212068A5
:100C100002F0D6FD400320684FF0020148D002F0F8
:100C2000CFFD90FAA0F0B0FA80F12868420344D0DA
:100C300090FAA0F0B0FA80F0814204D100220221A3
:100C4000206802F0E6FD0321206802F0B9FD4003B0
:100C500020684FF0030133D002F0B2FD90FAA0F00B
:100C6000B0FA80F1286842032FD090FAA0F0B0FAD1
:100C700080F0814204D100220321206802F0C9FDE6
:100C80002068816811F0010F22D0ACE000E004E0A0
:100C900002F096FDC0F384618DE7C0F3846091E7B4
:100CA00002F08EFDC0F38461A2E7C0F38460A6E782
:100CB00002F086FDC0F38461B7E7C0F38460BBE750
:100CC00002F07EFDC0F38461CCE7C0F38460D0E71E
:100CD0002A7B296850F8B03FC1F3120C23EA0C03B9
:100CE00002F0180C664A22FA0CF20A401343036021
:100CF000E968494577D1286841031CD090FAA0F1F2
:100D0000B1FA81F1491C01F01F0109294FEA403174
:100D100032D8002912D000BF90FAA0F1B1FA81F1C7
:100D200001F1010101F01F0106FA01F609D100BF2E
:100D3000C0F3846109E0C0F38461E3E7C0F3846138
:100D4000EEE790FAA0F1B1FA81F101F1010101F0B1
:100D50001F0146EA816102D1C0F3846003E090FA8A
:100D6000A0F0B0FA80F000F1010000F01F0000EBED
:100D7000400041EA005132E000290ED090FAA0F183
:100D8000B1FA81F101F1010101F01F0106FA01F64A
:100D900006D100BFC0F3846106E0C0F38461F1E7CF
:100DA00090FAA0F1B1FA81F101F1010101F01F0106
:100DB00046EA816102D1C0F3846003E090FAA0F0BA
:100DC000B0FA80F000F1010000F01F002D4A00EBA6
:100DD000400002EB005041EA000141F00071AA68B6
:100DE000206802F007FD28482A6802423FF466AEF8
:100DF00026488168264B01F0E0719A4202D0254BCB
:100E00009A421CD10B021AD42268B2F1A04F7FF48F
:100E100055AE826841F4000122F0E0720A4382601C
:100E20001D481E490068B0FBF1F0401C00EB40007B
:100E3000800000E0401E00900028FBD13EE6184DE7
:100E4000184BAA4207D1CD0105D422689A42F5D0A9
:100E500041F0807109E0144DAA42EFD14A02EDD46D
:100E600022689A42EAD041F48001826822F0E0725E
:100E70000A43826022E6000000007F4000F0FF038A
:100E8000FFFF0700000020FE000008800003005064
:100E9000000021C31000C09018000020400D030086
:100EA000000052C700010050000084CB704770471B
:100EB000704700002DE9F05F044600680668456849
:100EC000DFF854B2DBF8080000F01F07B0070ED5BA
:100ED000A8070CD5E06DC00603D4E06D40F40060B7
:100EE000E0652046FFF75EFD216802200860DFF81C
:100EF0002CA270074FF0A04801D5680703D4300733
:100F000037D5280735D5E06DC00603D4E06D40F431
:100F10000070E065206802F065FC20B32068504551
:100F200001D1424600E00246824208D03FB1052F7F
:100F300005D0092F03D0504503D1414602E0C168D6
:100F400001E00146C96889040DD4016809070AD582
:100F500002F040FC58B3E06D40F01000E065206EF8
:100F600040F0010020662046FFF7A0FF21680C201A
:100F70000860B00601D5A80603D4700658D56806E7
:100F800056D5E06DC00603D4E06D40F40050E06536
:100F90002068C16C11F4C07F1AD00021894602F08C
:100FA00021FC02462068504514D1434613E02068D6
:100FB000416821F00C014160E06D20F48070E06533
:100FC000E06DC004CFD4E06D40F00100E065CAE7F9
:100FD0000121E3E70346834208D03FB1062F05D045
:100FE000072F03D0504503D1414602E0C16801E01C
:100FF0000146C968B9F1000F14D08B0102D58AB13E
:101000008A040FD4026852060CD589020AD402F071
:10101000DDFBE8B3E06D40F01000E065206E40F0CD
:10102000010020662046FFF7BEFC216860200860B2
:1010300030060BD5280609D5E06D40F48030E06518
:10104000204600F06BF9216880200860F0050CD57F
:10105000E8050AD5E06D40F40030E0652046FFF772
:10106000A4FC21684FF480700860B0050CD5A80579
:101070000AD5E06D40F48020E0652046FFF796FC3D
:1010800021684FF400700860F0062ED5E80600E0F5
:1010900008E02AD5E06BD0B1AFB1DBF8080000F46E
:1010A000604013E02068416821F060014160E06D1C
:1010B00020F48050E065E06DC005B3D4E06D40F0F1
:1010C0000100E065AEE72068C068C00750B1E06D80
:1010D00040F48060E065206E40F00200206620460B
:1010E000FFF7E6FE216810200860700512D568053C
:1010F00010D5E06D40F48040E065206E40F00800BF
:10110000206621684FF4806008602046BDE8F05FEB
:10111000FFF74ABCBDE8F09F0003005000010050FB
:10112000F8B54FF0000504002E46009502D0E06DA2
:1011300010B107E00120F8BD204600F0F1F8266666
:1011400084F8586020688168C1F3407119B18168E2
:101150006A4A1140816020688168C1F3007189B9D1
:101160008168674A114041F0805181606548664955
:101170000068B0FBF1F04000801C00E0401E0090D1
:101180000028FBD120688168C1F3007141B9E16D8D
:1011900041F01001E165216E41F001012166012558
:1011A00002F018FBE16DC90600D430B1E06D40F0EB
:1011B0001000E06501252846F8BDE06D20F4807040
:1011C00040F00200E0652068806810F0010F11D146
:1011D0004FF0A04080684D4900F00100896801F09F
:1011E0000101084306D14A486168826822F47C12F2
:1011F0000A438260E168E06B627F0843A16841EACC
:101200004231084394F8241040EA0140012904D1F6
:10121000218D404A02EB41410843E16A29B101F4C2
:101220007871226B014342EA01002168CA683A4B97
:101230001A400243CA6020680169626B21F0406174
:1012400011430161206802F0C5FA0646206802F0E9
:10125000BDFA30432ED1207F94F83810800340EA45
:1012600041022068C16844F2020399431143C160FE
:1012700020690028206801690AD041F480310161A9
:10128000206850F8C01F22696FF30D01114307E079
:1012900021F480310161206850F8C01F6FF30D0107
:1012A000016094F8400001280CD02068016921F009
:1012B00001010161606901282068016B21F00F01C3
:1012C00011D013E0D4E911010843D4E913121143FA
:1012D000084321680A6940F2FC739A43104340F0C6
:1012E00001000861E6E7226A521E11430163E06DC6
:1012F00020F0020040F00100E0655CE7C0FFFF5F06
:10130000C0FFFF7F18000020400D030000010050C7
:10131000000300500000FEFF0740F0FF7047000090
:101320002DE9F04F97B00646142111A8FEF7A8FF4B
:1013300044216846FEF7A4FF4FF0005132680025B3
:10134000494F8813494C4FF003094FF0800A4FF47E
:10135000007BB2F1A04F11D0454B9A424ED10F9174
:1013600080460090684600F005FC08B1FFF718FBC6
:101370003868401C3860012843D04AE00F91009043
:10138000684600F0F7FB08B1FFF70AFB3868401C1D
:101390003860012807D1E06C40F40050E064E06C54
:1013A00000F400501690E06C40F00200E064E06C45
:1013B000139500F0020016904FF48050CDE911090A
:1013C00011A92C4800F0EAF92C4C2B48206005208C
:1013D000C4E901054FF40060C4E905B02020E061D4
:1013E00000022062204635E07465002202211220AE
:1013F000A66200F027FB122000F016FB17B0BDE834
:10140000F08FE06C40F40050E064E06C00F40050B9
:101410001690E06C40F00200E064E06CCDF844808F
:1014200000F00200CDE91295169011A9114800F0C4
:10143000B5F91148114C1430603420602420C4E9FF
:1014400001054FF40060C4E905B02020E06100020E
:1014500020622046C4E9035A00F0E8F80028C3D00F
:10146000FFF79EFAC0E700000800002000100240CD
:1014700000010050000400481C000240140100203C
:101480002DE9F0410446344817468846806800F04C
:101490001F05206802F09EF900285AD194F85800E0
:1014A000012856D0012084F85800002625B1052DCA
:1014B00002D0092D00D003E02046FFF7C3F918B190
:1014C00084F85860BDE8F081E06D40F60161884322
:1014D00040F48070E06521492068884202D14FF0D5
:1014E000A04100E00146814200D01DB9E06D20F42A
:1014F0008010E065E06DC00404D5206E20F0060089
:10150000206600E02666616D1548C862616D154869
:101510000863616D1448486321681C20086084F8E2
:1015200058602068416841F0100141602068C1683E
:1015300041F00101C16021683B4642464031606D87
:1015400000F0D4F821688A68084B1A40121D8A609E
:10155000B8E70220B6E70000000300500001005089
:10156000B90700083B08000821080008C0FFFF7FFA
:10157000F0B4016C0C6801680D6890F8442002F02A
:101580001F06042202FA06F3234211D06B070FD57F
:101590000B689B0603D40B6823F004030B6090F8E0
:1015A000441001F01F018A40016C4A60016B1DE08C
:1015B000022303FA06F727424FF0000C4FF0010216
:1015C00018D0AF0716D50C68A40605D40C6824F013
:1015D0000A040C6080F8252090F8441001F01F01E7
:1015E0008B40016C4B6080F824C0C16A00291AD07E
:1015F000F0BC08470823B340234214D02B0712D570
:101600000B6823F00E030B6090F84410036C01F09C
:101610001F0102FA01F15960C26380F8252080F8A9
:1016200024C0416BE2E7F0BC7047000070B50400D5
:101630000CD02B4A21681420914209D2294A0A442D
:10164000B2FBF0F08000606427480AE0012070BD22
:10165000234A52420A44B2FBF0F080006064204802
:1016600008382064022084F825000A6847F6F070E4
:101670008243D4E902031843D4E904352B431843C9
:10168000A3691843E3691843236A184310430860A9
:101690002046FFF725F9A0680025B0F5804F00D15E
:1016A0006560A16C20790860D4E91301416060682D
:1016B000401E032808D82046FFF732F9606D056008
:1016C000D4E91601416002E06565A565E565E5635D
:1016D000012084F8250084F82450002070BD00000B
:1016E00008040240F8FFFDBF0000024070B5044648
:1016F00090F82400002501280CD0012084F8240053
:1017000094F825600020012E06D084F824000225DC
:10171000284670BD022070BD022684F82560E06373
:101720002068066826F0010606602046FFF70AF9E1
:10173000206B00282068016802D041F00E0106E00D
:1017400021F0040101602068016841F00A01016094
:10175000A06C0168C90303D5016841F48071016080
:10176000606D18B1016841F4807101602068016802
:1017700041F001010160CBE770B5044600F0FCF8D0
:101780000546601C02D004484068044400F0F4F8A8
:10179000401BA042FAD370BD0C0000202DE9FC4F85
:1017A000DFF8A0A1002301250AF1040B03244FF068
:1017B0000F0C0BF1040EBDE005FA03F632406FD0BA
:1017C0004F68012F05D0022F03D0112F01D0122F07
:1017D00017D1D0F808905F0004FA07F829EA080941
:1017E0000097D1F80C8008FA07F848EA0908C0F811
:1017F00008804768B7430E79C6F300169E403E4303
:101800004660C6684FEA430804FA08F7BE430197EA
:101810008F6807FA08F73743C7604E68022E01D079
:10182000122E13D1DE0800EB86060096366A5F079B
:10183000FF0E0CFA07F926EA0906D1F8109009FA0A
:1018400007F949EA0609009EC6F820900668019F3C
:10185000BE430F7907F0030707FA08F7374307601D
:101860004E68F60065D5384E376E47F0010737668B
:10187000366E23F0030706F001060096334E3E4411
:10188000B146B6689F074FEA17780CFA08F7BE43CF
:10189000B0F1904F05D02E4FB84204D1012717E088
:1018A00047E0002714E02B4FB84201D102270FE098
:1018B000294FB84201D103270AE0284FB84201D18D
:1018C000042705E0264FB84201D1052700E006278E
:1018D00007FA08F73743C9F80870DAF80060574686
:1018E000D1F8048096435FEAC83800D516433E60BD
:1018F000DBF800605F46D1F8048096435FEA8838E1
:1019000000D516433E60DEF800607746D1F80480CB
:1019100096435FEAC82800D516433E60094F0C374E
:101920003E68D1F8048096435FEA882800D51643C4
:101930003E605B1C0A6832FA03F67FF43DAFBDE8F7
:10194000FC8F000000040140001002400000014034
:101950000004004800080048000C0048001000483F
:10196000001400480069084000D0012070470AB107
:10197000816170478162704701488068704700004C
:101980000C00002002488168426811448160704761
:101990000C00002010B50024032000F073F8002094
:1019A00000F008F808B1012401E000F025F8204615
:1019B00010BD000070B50E4E05460024706898B149
:1019C0004FF47A71B1FBF0F00A490968B1FBF0F00D
:1019D00000F064FD40B9102D06D200222946501EA9
:1019E00000F030F8356000E00124204670BD0000B2
:1019F0000C000020180000200A4882B0016E41F05F
:101A000001010166016E01F001010091816D41F05B
:101A100080518165806D00F08050009002B000F030
:101A2000A1B8000000100240002809DB00F01F02EE
:101A3000012191404009800000F1E020C0F8001130
:101A400070470000F0B40E4B1B680C46C3F3022332
:101A5000C3F10705042D00D90425191D072901D25A
:101A6000002300E0DB1E012606FA05F1491E214095
:101A700099409E40761E16403143F0BC02F0E0BF14
:101A80000CED00E0064900F0070208684FF6FF037E
:101A9000184040EA0220034A1043086070470000E3
:101AA0000CED00E00000FA052B492C4B0A683221AE
:101AB0004A432B4940B1B0F5007F086829D020F493
:101AC000C06040F480602CE00868C0F34120022828
:101AD00004D051F8800F20F4807022E0D1F880000B
:101AE00020F48070C1F88000086820F4C06040F4E1
:101AF00000700860B2FBF3F0401C00E0401E4A6931
:101B0000520501D50028F9D1486940050AD50320BE
:101B10007047C0F34120022806D051F8800F40F4EE
:101B20008070086000207047D1F8800040F4807019
:101B3000C1F88000086820F4C06040F400700860BC
:101B4000B2FBF3F0401C00E0401E4A695205DBD5B1
:101B50000028F9D1D8E700001800002040420F000B
:101B6000007000400248816841F480418160704704
:101B7000007000402DE9F8430446006800269D4DA2
:101B800000035ED5A86D0027C00008D4A86D40F002
:101B90008050A865A86D012700F080500090DFF804
:101BA0005892D9F8001041F48071C9F80010FFF77D
:101BB000E3FE804606E000BFFFF7DEFEA0EB080074
:101BC00002282BD8D9F80000C005F5D5D5F890002B
:101BD00010F4407014D0216C814211D0D5F89000DF
:101BE000D5F8901020F4407041F48031C5F8901081
:101BF000D5F8901021F48031C5F89010C5F8900008
:101C0000C00711D0FFF7B8FE804641F2883907E0DF
:101C1000FFF7B2FEA0EB0801494501D903260BE00E
:101C2000D5F890008007F3D5D5F89000216C20F40A
:101C300040700843C5F890001FB1A86D20F0805097
:101C4000A8652078C00707D0D5F88800616820F023
:101C500003000843C5F888002078800707D5D5F829
:101C60008800A16820F00C000843C5F8880020789F
:101C7000400707D5D5F88800E16820F03000084318
:101C8000C5F888002078000707D5D5F888002169B5
:101C900020F0C0000843C5F888002078800607D5EA
:101CA000D5F88800616920F440600843C5F88800D1
:101CB0002078400607D5D5F88800A16920F4405067
:101CC0000843C5F888002078000607D5D5F88800B5
:101CD000E16920F440400843C5F888002088C00529
:101CE00007D5D5F88800216A20F440300843C5F8AC
:101CF00088002088800507D5D5F88800616A20F41F
:101D000040200843C5F88800208840050FD5D5F845
:101D10008800A16A20F440100843C5F88800A06A32
:101D2000B0F5801F03D1E86840F48010E860208897
:101D300000050FD5D5F88800E16A20F4400008437B
:101D4000C5F88800E06AB0F5800F03D1E86840F478
:101D50008010E8602088C0040FD5D5F88800216B7A
:101D600020F040700843C5F88800206BB0F1807FF8
:101D700003D1E86840F48010E86020884FF00061EB
:101D800080040ED5D5F88800626B20F040601043C7
:101D9000C5F88800606B884203D1E86840F4801081
:101DA000E860208840040ED5D5F88800A26B20F0AA
:101DB00040601043C5F88800A06B884203D1E868F2
:101DC00040F48010E860208800040FD5D5F8880022
:101DD000E16B20F040500843C5F88800E06BB0F19B
:101DE000805F03D1E86840F48030E8603046BDE8A9
:101DF000F883000000100240007000402DE9F04719
:101E00000E4605004FF0000725D0DFF8AC81D8F86A
:101E1000000000F00F00B0420CD2D8F8001021F002
:101E20000F013143C8F80010D8F8000000F00F008F
:101E3000B04210D12968614CC80741F2883A5AD0A3
:101E40006868DFF87C91032808D0022820682DD02C
:101E5000400500282CDB0120BDE8F08720688001C8
:101E6000F9D5E06800F00302E068C0F30310401CFD
:101E7000032A19D0534A00BFB2FBF0F0E268C2F364
:101E800006225043E268C2F34162521C5200B0FB8A
:101E9000F2F0484517D9A06810F0F00F0CD0880771
:101EA00011D5A86840B10EE0474AE5E78003D0E7C6
:101EB00000F0B6F8484506D9A06820F0F00040F0E0
:101EC0008000A0608027A068696820F003000843B4
:101ED000A060FFF751FD814606E000BFFFF74CFD13
:101EE000A0EB090151453AD8A068696800F00C00E0
:101EF000B0EB810FF2D12868810714D5400703D5D4
:101F0000A06840F4E060A0602878000705D5A068CC
:101F100020F4605040F4E060A060A068A96820F060
:101F2000F000084304E0802F03D1A06820F0F00007
:101F3000A060D8F80010404601F00F01B14216D958
:101F4000016821F00F0131430160FFF715FD0746DD
:101F500007E000BFFFF710FDC11B514501D9032069
:101F60007AE7D8F8000000F00F00B042F2D12878EC
:101F7000400705D5A068E96820F4E0600843A06048
:101F80002878000706D5A068296920F4605040EA47
:101F9000C100A06000F044F8A1680C4AC1F303112D
:101FA000515C01F01F01C8400949086009480068F8
:101FB000BDE8F047FFF7FEBC0020024000100240E1
:101FC00000B4C4040024F40000366E01A8690008BF
:101FD000180000200C0000200548064900688968A8
:101FE000054AC1F30221515C01F01F01C84070474E
:101FF0001800002000100240B86900080548064992
:1020000000688968054AC1F3C221515C01F01F01D3
:10201000C84070471800002000100240B86900084E
:10202000184910B58868C0F381021748012A0BD0FF
:102030008A68164BC2F38102022A06D08A68C2F36C
:102040008102032A03D0002010BD184610BDCA68C3
:1020500002F00304CA68C2F30312521C032C02D01C
:10206000B0FBF2F001E0B3FBF2F0CA68C968C2F35A
:1020700006225043C1F34161491C4900B0FBF1F015
:1020800010BD0000001002400024F40000366E0174
:102090002DE9F84304007AD02078FA4DC00747D0E4
:1020A000A868E96800F00C0001F003010C2802D0D8
:1020B000082817D001E0032914D06068B0F5803FEC
:1020C00017D0B0F5A02F286817D020F480302860F2
:1020D000286820F4802028606068E0B1FFF74CFC9D
:1020E000064614E02868800322D560680028D2D014
:1020F0001EE0286840F48030EDE740F4802028603E
:10210000F7E700BFFFF738FC801B642870D8286809
:102110008003F7D50CE0FFF72FFC064605E000BF73
:10212000FFF72AFC801B6428F0D828688003F7D4C6
:10213000207880074CD5A868E96800F00C0001F011
:1021400003010C2802D004280DD001E002290AD096
:10215000E068002828682BD040F480702860FFF7E2
:102160000BFC064619E02868400502D5E068002807
:1021700091D06868217C20F0FE4040EA01606860F0
:10218000C1480068FFF716FC002800D120E076E186
:10219000FFF7F2FB801B0228B8D828684005F7D566
:1021A0006868217C20F0FE4040EA016068600FE032
:1021B00020F480702860FFF7DFFB064605E000BFD3
:1021C000FFF7DAFB801B0228A0D828684005F7D467
:1021D0002078000729D560690028D5F8940013D02D
:1021E00040F00100C5F89400FFF7C6FB064606E084
:1021F00090E000BFFFF7C0FB801B022886D8D5F80F
:1022000094008007F6D510E020F00100C5F8940096
:10221000FFF7B2FB064604E0FFF7AEFB801B022887
:1022200078D8D5F894008007F6D42078400761D597
:10223000A86D0026C00008D4A86D40F08050A865A5
:10224000A86D012600F08050009090480168C905F3
:1022500011D40168804641F480710160FFF78CFB66
:10226000074604E0FFF788FBC01B022852D8D8F8C5
:102270000000C005F6D5A068012815D00528D5F8BE
:10228000900016D020F00100C5F89000D5F890001D
:1022900020F00400C5F89000A06841F28838B8B179
:1022A000FFF76AFB07460EE0D5F8900040F001000A
:1022B000F0E740F00400C5F89000F5E7FFF75CFB9D
:1022C000C11B414526D8D5F890008007F6D50CE013
:1022D000FFF752FB074604E0FFF74EFBC11B4145E9
:1022E00018D8D5F890008007F6D41EB1A86D20F05C
:1022F0008050A8652078800629D5A0690028D5F8E7
:10230000980013D040F00100C5F89800FFF734FBA7
:10231000064606E077E000BFFFF72EFB801B022891
:1023200077D8D5F898008007F6D510E020F00100A6
:10233000C5F89800FFF720FB064604E0FFF71CFBFA
:10234000801B022865D8D5F898008007F6D4E0698C
:10235000F0B3A968C1F38101032961D0022828687C
:1023600020F0807028600BD0E86820F00300E8605F
:10237000E86847490840E860FFF7FEFA04464BE08A
:10238000FFF7FAFA064604E0FFF7F6FA801B022888
:102390003FD828688001F7D4F4E908016FF00F02F4
:1023A00002EB01110843218A5204490802EB415112
:1023B000A26841EA02210843217D4FF07E4249088C
:1023C00002EB41610843217B40EAC160E96800E01B
:1023D00062E0304A11400843E860286840F08070AD
:1023E0002860E86840F08070E860FFF7C5FA0446AE
:1023F00005E000BFFFF7C0FA001B022809D82868D3
:102400008001F7D548E004E0FFF7B6FA001B022888
:1024100002D90320BDE8F88328688001F4D43BE0AA
:102420000128F7D0E868226A00F00301914226D122
:10243000616A00F0F0020901103991421FD1A26ACD
:1024400000F4FE41B1EB022F19D194F82C2000F0DA
:102450007841B1EBC26F12D1218E00F4C00249085D
:102460004905A1F50011914209D194F8341000F00A
:10247000C06049084906A1F1007181420CD00120D9
:10248000C8E70000001002400C000020007000406F
:10249000FFFFEEFE0C809F010020BBE710B5401E41
:1024A000B0F1807F01D3012010BD4FF0E0246061C6
:1024B0000F21601702F0C4FA0020A06107202061FC
:1024C000002010BD704770477047704770477047D5
:1024D000F0B590F83C20012A3AD0012580F83C5014
:1024E000022280F83D2003685A689C68194E1A4FF2
:1024F000B34201D0BB4204D122F4700C4A6842EAD4
:102500000C02DFF858C002EA0C02D1F800C04CEA15
:10251000020CC3F804C00268B2420DD0B2F1804F81
:102520000AD00F4B9A4207D00E4B9A4204D0BA42BF
:1025300002D00D4B9A4204D1896824F080031943DC
:10254000916080F83D50002180F83C100846F0BDB5
:102550000220F0BD002C0140003401408FFFFFFD40
:10256000000400400008004000400140704710B5E2
:10257000040003D094F83D0010B107E0012010BD25
:10258000002084F83C00204600F022F8022084F865
:102590003D00211D206801F065FD012084F8480000
:1025A00084F83E0084F83F0084F8400084F841003D
:1025B00084F8420084F8430084F8440084F845001D
:1025C00084F8460084F8470084F83D00002010BDE0
:1025D00010B586B0044614216846FDF751FE204A26
:1025E00021682048914210D1016E41F400610166DA
:1025F000006E002200F40060059011461920FFF7DC
:1026000021FA1920FFF710FA1FE0174A914224D14E
:10261000016E41F480210166016E01F48021059173
:10262000C16C41F00101C164C06C694600F0010059
:1026300005908020009002200190002002900390DD
:10264000012004901004FFF7A9F8002211461A2077
:10265000FFF7F8F91A20FFF7E7F906B010BD000000
:10266000002C0140001002400048014090F83D104D
:10267000012901D001207047022180F83D10016836
:10268000CA6842F00102CA600068104988420ED050
:10269000B0F1804F0BD00E49884208D00D498842D6
:1026A00005D00D49884202D00C49884207D1816883
:1026B0000B4A1140062906D0B1F5803F03D00168CE
:1026C00041F001010160002070470000002C014032
:1026D0000004004000080040003401400040014078
:1026E0000700010070B5044690F83C00012814D0A2
:1026F000012584F83C50022084F83D00226890684F
:10270000344B184020F47F4090600868702827D030
:1027100010DC10F00F0F03D04AE04FF0020070BD44
:102720004FEA2012072A43D2DFE802F050505050FF
:1027300048313900284BC21A984247D009DCB0F51D
:10274000805F35D0B0F5005F15D0B0F1101F2FD1EC
:102750003CE0102A3AD0202A38D0502A28D135E03F
:10276000CB68D1E90121206801F0E1FC2068816893
:1027700041F0770109E0CB68D1E90121206801F03F
:10278000D6FC2068816841F48041816010E0CA680D
:102790004968206801F076FE5021206806E0CA688A
:1027A0004968206801F0B6FE6021206801F0CAFC8B
:1027B00084F83D50002084F83C0070BDCA68496828
:1027C000206801F05FFE40212068EFE722680146A3
:1027D0001046EBE788FFCEFF2000100000680A4992
:1027E000884210D10848343001680848064B00225E
:1027F000243301601A601A1D12684A4304490968AB
:10280000B1FBF2F141607047004801401C0000201C
:10281000180000202DE9F041054690F83C000C46D8
:10282000012836D0012085F83C008AB3042A42D022
:102830002868082A51D0D4E90023E168066A26F402
:1028400080560662C669076A26F4407646EA032384
:102850004FF6FF7606EA013123F4704319434FF433
:10286000204627F4204306EA02321A43C16102627D
:102870002868C16921F44061C1612868C169A26802
:1028800041EA0221C161002085F83C00BDE8F081E9
:1028900001E00220FAE7D4E90012E368286801F0B9
:1028A00003FE2868816921F00C0181612868816933
:1028B000A26811430FE0D4E90012E368286801F030
:1028C0003BFE2868816921F4406181612868816943
:1028D000A26841EA02218161D5E7D4E90027267B7D
:1028E000016A21F480710162C169036A21F0030168
:1028F000394321F0F00731074FF4206647EA1161B0
:1029000023F4206306EA02221A43C16102622868A6
:10291000C16921F00C01C1612868C169A268114335
:10292000B0E710B5040003D094F83D0010B107E003
:10293000012010BD002084F83C00204600F022F861
:10294000022084F83D00211D206801F08BFB01204E
:1029500084F8480084F83E0084F83F0084F8400082
:1029600084F8410084F8420084F8430084F844006D
:1029700084F8450084F8460084F8470084F83D0058
:10298000002010BD7047000010B5044679B104293D
:1029900012D0082915D00C2918D0102919D094F874
:1029A000430000BF94F84720012817D114E094F8A1
:1029B0003E0094F84420F7E794F83F0094F845204F
:1029C000F2E794F8400094F84620EDE794F84100CF
:1029D000E8E794F84200E5E7012A01D0012010BDA4
:1029E000022071B1042915D008291CD00C2948D027
:1029F000102949D084F8430084F847000C291BD1E2
:102A000045E084F83E0084F844002068C26842F043
:102A1000020210E084F83F0084F845002068C26894
:102A200042F0040207E084F8400084F84600206881
:102A3000C26842F00802C2600122206801F06AFB0D
:102A40001549206888420ED0B0F1804F0BD0134951
:102A5000884208D01249884205D01249884202D0E3
:102A60001149884207D18168104A1140062906D0D1
:102A7000B1F5803F03D0016841F001010160002001
:102A800010BD84F84100B7E784F84200B4E720683D
:102A9000C26842F01002CEE7002C01400004004062
:102AA00000080040003401400040014007000100E0
:102AB00070B50446006801694FF00005C9438907F5
:102AC00015D4C168C943890711D4E91E01610120E9
:102AD0002077206880698007204602D0FFF77EFEBD
:102AE00004E000F009F9204600F0DAF925772068C3
:102AF0000169C943490717D4C168C943490713D4B9
:102B00006FF004010161022020772068806910F4D1
:102B1000407F204602D0FFF761FE04E000F0ECF8B1
:102B2000204600F0BDF9257720680169C9430907EF
:102B300016D4C168C943090712D46FF008010161B6
:102B4000042020772068C0698007204602D0FFF764
:102B500045FE04E000F0D0F8204600F0A1F925770A
:102B600020680169C943C90617D4C168C943C906A9
:102B700013D46FF010010161082020772068C0692C
:102B800010F4407F204602D0FFF728FE04E000F05A
:102B9000B3F8204600F084F9257720680169C9431D
:102BA000C90708D1C168C943C90704D1891E016199
:102BB000204600F0F5F920680169C943090609D4E7
:102BC000C168C943090605D46FF080010161204640
:102BD000FFF779FC20680169C943C90509D4C168B8
:102BE000C943090605D46FF4807101612046FFF7DF
:102BF00069FC20680169C943490609D4C168C94311
:102C0000490605D46FF040010161204600F0D6F975
:102C100020680169C943890609D4C168C943890686
:102C200005D46FF0200101612046FFF74DFC2068BC
:102C30000169C943C90209D4C168C943C90205D49D
:102C40006FF4801101612046FFF740FC20680169A4
:102C5000C943890209D4C168C943890205D46FF404
:102C6000001101612046FFF730FC20680169C9436B
:102C7000490209D4C168C943490205D46FF48001EF
:102C800001612046FFF723FC20680169C94309025E
:102C90000BD4C168C943090207D46FF40001016174
:102CA0002046BDE87040FFF761BC70BD10B586B02E
:102CB000044614216846FDF7E3FA2068B0F1804F1E
:102CC00015D10C48C16C41F00101C164C06C69466A
:102CD00000F0010005900220009001900020029079
:102CE0000390012004904FF09040FEF757FD06B08E
:102CF00010BD000000100240704770B5044690F807
:102D00003C000D4601280BD0012084F83C000C2A21
:102D100045D007DC5AB1042A1BD0082A78D12CE010
:102D2000022070BD102A4ED0142A71D15DE02068B7
:102D300001F012FA2068816941F008018161206880
:102D4000816921F004018161206881692A69114348
:102D500011E0206801F04EFA2068816941F40061B9
:102D600081612068816921F48061816120688169C5
:102D70002A6941EA022181614AE0206801F082FA71
:102D80002068C16941F00801C1612068C16921F072
:102D90000401C1612068C1692A69114311E02068FA
:102DA00001F0B8FA2068C16941F40061C16120688E
:102DB000C16921F48061C1612068C1692A6941EA61
:102DC0000221C16124E0206801F0ECFA2068016D65
:102DD00041F0080101652068016D21F004010165E1
:102DE0002068016D2A69114311E0206801F012FB8F
:102DF0002068016D41F4006101652068016D21F4D6
:102E0000806101652068016D2A6941EA022101653E
:102E1000002084F83C0070BD10B5040003D094F885
:102E20003D0010B107E0012010BD002084F83C00F7
:102E3000204600F023F8022084F83D00211D206880
:102E400001F010F9012084F8480084F83E0084F86D
:102E50003F0084F8400084F8410084F8420084F880
:102E6000430084F8440084F8450084F8460084F860
:102E7000470084F83D00002010BD000008B5006840
:102E8000B0F1804F08D10548816D41F001018165A5
:102E9000806D00F00100009008BD000000100240AD
:102EA0007047000030B50446022269B1042912D0EF
:102EB000082917D00C291CD0102921D094F84300E0
:102EC000012824D0012030BD94F83E000128F9D11A
:102ED00084F83E201DE094F83F000128F2D184F8E8
:102EE0003F2016E094F840000128EBD184F8402000
:102EF0000FE094F841000128E4D184F8412008E073
:102F000094F842000128DDD184F8422001E084F8E1
:102F100043200122206801F0FDF8194B206819496F
:102F2000194A984209D0884207D0904205D0174DDF
:102F3000A84202D0164DA84203D1456C45F4004585
:102F40004564206898420CD0B0F1804F09D0114BF5
:102F5000984206D0104B984203D0884201D090424C
:102F600007D181680D4A1140062906D0B1F5803F8E
:102F700003D0016841F001010160002030BD000074
:102F8000002C014000340140004001400044014059
:102F90000048014000040040000800400700010014
:102FA00000680449884203D103490888401C08800E
:102FB00070470000002C01402E000020704790F860
:102FC0008010012918D0012180F880102421C0F838
:102FD000841050F8641B0A680B6823F001030B602F
:102FE00022F000510022026050F8643C1960202158
:102FF00001620277104670470220704770B50446A0
:1030000090F8800001281DD0012084F88000242041
:10301000C4F8840020680568026822F0010202609A
:103020002068826822F060620A438260204601F0D4
:103030009FFA206805602020C4F88400002084F8EE
:10304000800070BD022070BD70B5044690F880000D
:1030500001281DD0012084F880002420C4F88400B9
:1030600020680568026822F0010202602068826818
:1030700022F060420A438260204601F079FA20681B
:1030800005602020C4F88400002084F8800070BD12
:10309000022070BD10B5040003D0D4F8840010B134
:1030A00007E0012010BD002084F88000204600F0D9
:1030B00027F82420C4F884002068016821F0010169
:1030C0000160204601F00AFB0128EBD0A06A10B194
:1030D000204601F06FFA2068416821F49041416078
:1030E0002068816821F02A0181602068016841F030
:1030F000010101602046BDE8104001F0BFBA0000A8
:1031000070B598B00646142111A8FDF7B9F844210E
:103110006846FDF7B5F823493068884240D1012060
:103120000025CDE900056846FEF724FD08B1FDF74E
:1031300037FC1D49086E40F480400866086E00F4B4
:1031400080401690C86C40F00100C864C86C11A99A
:1031500000F0010016904FF4C06011900220CDE9FC
:1031600012050720CDE914504FF09040FEF716FBF2
:103170000F4C0E4820601820C4E901058020C4E9E6
:103180000350800060618000C4E906058000206271
:103190002046FEF74BFA08B1FDF702FCF467A66281
:1031A00018B070BD00380140001002400800024015
:1031B000480300202DE9F8430446D0F884001F4658
:1031C00016460D46202851D1DDB1D6B194F88000C5
:1031D00001284BD0012084F880004FF00008C4F88B
:1031E0008C802120C4F884001834FEF7C5FBA68724
:1031F0008146E68754F8100C183CB0F5805F03D088
:1032000004E00120BDE8F883206920B12E460025A6
:1032100084F8808010E00026FAE78021204601F043
:1032200097FBB8B9C6B116F8010B21688862B4F8EB
:103230005600401EA4F85600B4F856004B464FF016
:10324000000200970028E8D14FF04001204601F02D
:103250007FFB30B10320D5E735F8020BC0F308003F
:10326000E3E72020C4F884000020CBE70220C9E770
:10327000FEE7000000B585B014216846FDF700F8B0
:10328000C020009001200190029002200390694626
:103290000248FEF783FA05B000BD000000040048B4
:1032A00070B50824002500F053FE13E06806050EF3
:1032B000002000F035FE142002F076F8142002F011
:1032C00073F8012000F02CFE142002F06DF800F0DD
:1032D00033FE0543641EE4B2E8D2002000F020FE75
:1032E000142002F061F800F055FE284670BD10B5BC
:1032F000002000F043FE142002F056F8142002F0E3
:1033000053F8012000F00CFE142002F04DF80020CC
:1033100000F006FEBDE81040142002F045B870B57C
:103320000446082516E000F0FBFD142002F03CF8EE
:1033300004F0800000F022FE142002F035F8600650
:10334000040E142002F030F8012000F0E9FD1420F2
:1033500002F02AF86D1EEDB24FF00000E3D200F04B
:10336000DFFDBDE87040142002F01EB810B501204A
:1033700000F004FE142002F017F8142002F014F8F4
:10338000012000F0CDFD142002F00EF8002000F026
:10339000C7FDBDE81040142002F006B810B50120AA
:1033A00000F0ECFD142001F0FFFF012000F0B8FD5B
:1033B000142001F0F9FF002000F0E0FD142001F0DE
:1033C000F3FF002000F0ACFDBDE81040142001F038
:1033D000EBBF10B5002000F0A3FD142001F0E4FFC6
:1033E000002000F0CBFD142001F0DEFF012000F0F2
:1033F00097FD142001F0D8FF012000F0BFFDBDE8CB
:103400001040142001F0D0BF00B585B014216846EB
:10341000FCF736FF4FF6FF70009000200321CDE946
:103420000201019069460248FEF7B8F905B000BDF7
:103430000008004800B585B014216846FCF720FF5D
:103440004FF6FF70009001200190032003900020B0
:10345000029069460248FEF7A1F905B000BD0000E0
:103460000008004870B5002406462146204600F0BA
:1034700003F900F041F94FF49635304600F010F9A9
:10348000641CAC42F9D370BD30B587B014216846D6
:10349000FCF7F6FE1E48C16C41F00401C164C16C2A
:1034A00001F004010591C16C41F00101C164C16CDE
:1034B00001F001010591C16C41F00201C164C06CD1
:1034C000012500F0020005904FF44870CDE9000599
:1034D00000240394694602940E48FEF75FF928021F
:1034E00003940090CDE901544FF090446946204682
:1034F000FEF754F9FFF79EFFA06940F48070A061C9
:1035000004481830016841F40871016007B030BD0B
:103510000010024000040048203AD2B2034B02EBF4
:10352000420203EB021200F019B80000B057000885
:10353000F0B50E460746002540F23F1407E021464D
:103540003846FFF7E9FF103C6D1CA4B2761C3278B8
:10355000002A01D0142DF2D3F0BD00002DE9F04770
:1035600091468A460026044600F086F8DFF840803F
:10357000012700BF00F0C0F85FF0000539F8160021
:1035800007FA05F10842404601D1408800E0008872
:1035900000F086F86D1C102DF0D3641CE4B2514687
:1035A000204600F069F8761C182EE3D3BDE8F087BA
:1035B0000000002010B5FFF767FF002000F014F8AE
:1035C000084CA080A088A0F50241303906D000F058
:1035D000A5FB002000F008F8A08010BD00F015FB4E
:1035E000F7E700000000002070B51D490A6842F4AA
:1035F00000720A600A6842F480720A60184C103C3B
:10360000226842F020022260164A1060086840F0EA
:103610002000086000BF00BF00BF206840F020000D
:103620002060206840F480702060FFF7EDFE4FF0CE
:103630009041886A40F48070886200BF00BF00BF7C
:103640000848001F006885B2886940F4807088616E
:10365000FFF7F0FE206840F400702060284670BD3F
:10366000280400481408004801B5BDF800000149CD
:10367000488008BD0000002010B50C4601462020FF
:1036800000F068F82146BDE81040212000F062B843
:1036900001B5BDF800000149088008BD0000002008
:1036A000134A116841F400711160114910390B6817
:1036B00043F480730B600B6843F020030B600D4BE9
:1036C0001860106840F02000106000BF00BF00BF0D
:1036D000086840F020000860086840F480700860C6
:1036E00000BF00BF00BF086840F40070086070476A
:1036F00028040048140800481449086840F4007081
:103700000860086840F4807008601048103802684B
:1037100042F0200202600E4B22221A600A6842F038
:1037200020020A6000BF00BF00BF016841F0200115
:103730000160016841F48071016000BF00BF00BFFB
:10374000016841F4007101607047000028040048DE
:1037500014080048184B10B51A6842F400721A6039
:103760001A6842F480721A60134A103A146844F0DE
:1037700020041460114C2060186840F0200018608C
:1037800000BF00BF00BF106840F02000106010684C
:1037900040F4807010602160186840F020001860CC
:1037A00000BF00BF00BF106840F02000106010682C
:1037B00040F48070106010BD2804004814080048D0
:1037C00000EB8100006E00F0F84070478068C0F3A5
:1037D000C00070478068C0F3800070478068C0F305
:1037E00080007047C06810F4406F01D0002070471F
:1037F00001207047042303EAD15310B518444369EC
:10380000C1F3045107248C40A3438A40134343610E
:1038100010BD00EB8100016E21F0004111430166F3
:103820007047000030B58BB0002408940994202123
:1038300068460A94FCF724FD1C484FF0A04104257B
:1038400001604FF44031C0E90114C4600461C0E973
:103850000545047701214177016280F82440C46264
:10386000046380F83810C46380F84040FDF758FCCA
:1038700008B1FDF795F808A90C480894FDF798F8E9
:1038800008B1FDF78DF80A4800900620CDE9010443
:103890007F200594CDE9030569460448FDF7F4F857
:1038A000002801D0FDF77CF80BB030BD3C000020B3
:1038B0000008302E30B589B020216846FCF7E0FCC6
:1038C00019481849002401604FF44031C0E901143F
:1038D000C46004250461C0E90545047701214177EE
:1038E000016280F82440C462046380F83810C46325
:1038F00080F84040FDF714FC08B1FDF751F80B4883
:1039000000900620CDE901047F200594CDE9030550
:1039100069460548FDF7B8F8002801D0FDF740F8E2
:1039200009B030BD00010050A80000200080F03E2A
:10393000154808B5816C41F004018164816C01F087
:1039400004010091816C41F001018164806C0022CE
:1039500000F00100009011460B20FEF773F80B20D9
:10396000FEF762F8002211460C20FEF76BF80C20DF
:10397000FEF75AF8002211460D20FEF763F8BDE865
:1039800008400D20FEF750B800100240F0B587B097
:1039900014216846FCF774FC2D48C16C41F02001ED
:1039A000C164C16C01F020010591C16C41F00101BD
:1039B000C164C16C01F001010591C16C41F00401C9
:1039C000C164C16C01F004010591C16C41F00201B8
:1039D000C164C16C01F002010591C16C41F00801A4
:1039E000C164C06C1B4E00F008000590002230211D
:1039F0003046FDF7BCFF184F002204213846FDF782
:103A0000B6FF00240125CDE9005469464FF09040EF
:103A10000294FDF7C3FE30200090CDE901546946C1
:103A200030460394FDF7BAFE0720CDE9000469464D
:103A30000A480294FDF7B2FE04200090CDE901543B
:103A4000694638460394FDF7A9FE07B0F0BD0000B3
:103A50000010024000080048000C00480004004824
:103A60001FB5002415480094019402941249039450
:103A700001604F21C0E901144FF6FF71C0E9031442
:103A800044618461FEF773FD08B1FCF789FF0B48C0
:103A9000FEF747FF08B1FCF783FF0120CDE90040A6
:103AA00002940022694605480394FEF7B3FE0028FD
:103AB00001D0FCF775FF1FBD004801406C020020DB
:103AC00010B588B000241848059406940394049413
:103AD0000094019413490294016041F63F71C0E9DA
:103AE00001146321C0E9031444618461FEF73FFDC2
:103AF00008B1FCF755FF4FF48050039003A90A4822
:103B0000FEF7F0FD08B1FCF74BFF00940194694605
:103B100005480294FEF7DCFC002801D0FCF740FFCA
:103B200008B010BD002C0140D401002010B58AB0AF
:103B30000024079408941C2168460994FCF7A0FB14
:103B400015484FF08041016040F21F31C0E9011477
:103B50006321C0E903148461FFF75EF908B1FCF743
:103B60001FFF079407A90C480994FEF7B1FC08B1A0
:103B7000FCF716FF6020CDE9000402940422694698
:103B800005480494FFF7B9F808B1FCF709FF0248AB
:103B9000FFF78CF80AB010BD20020020184810B5BD
:103BA000164901604FF416514160002181600C22DA
:103BB000C160C0E904128161C16101624162816238
:103BC000FFF768FA08B1FCF7EBFE00210C48FFF79D
:103BD0003BFA08B1FCF7E4FE00210948FFF70EFAB2
:103BE00008B1FCF7DDFE0648FFF7E9F9002803D02D
:103BF000BDE81040FCF7D4BE10BD00000038014005
:103C0000B8020020FEE7FEE7704730B50121002032
:103C1000FFF7A0FD4FF47A70FCF7B4FE00210120FD
:103C2000FFF798FD41F290711020FFF793FD4FF4DC
:103C30001C516020FFF78EFD01216120FFF78AFDF6
:103C400002214620FFF786FD48F210011320FFF7FE
:103C500081FD48F2FE011220FFF77CFD4FF4A061C8
:103C60000220FFF777FD41F230010320FFF772FDDC
:103C700040F2033421463020FFF76CFD214631200D
:103C8000FFF768FD21463220FFF764FDE51E294657
:103C90003320FFF75FFD03213420FFF75BFD214652
:103CA0003520FFF757FD14213620FFF753FD21463D
:103CB0003720FFF74FFD21463820FFF74BFD214607
:103CC0003920FFF747FD29463A20FFF743FD03213E
:103CD0003B20FFF73FFD21463C20FFF73BFD4FF423
:103CE000A0513D20FFF736FD4FF400719220FFF701
:103CF00031FD21469320FFF72DFD40F60D01902068
:103D0000FFF728FD41F218010320FFF723FDBDE86E
:103D1000304040F273110720FFF71CBD10B543F28D
:103D20000801E320FFF716FD1221E720FFF712FD3F
:103D300041F23121EF20FFF70DFD00210120FFF7B7
:103D400009FD4FF4E0610220FFF704FD41F230016C
:103D50000320FFF7FFFC00210420FFF7FBFC40F2EB
:103D600007210820FFF7F6FC00210920FFF7F2FCED
:103D700000210A20FFF7EEFC00210C20FFF7EAFCEF
:103D800000210D20FFF7E6FC00210F20FFF7E2FCE9
:103D900000211020FFF7DEFC07211120FFF7DAFCDD
:103DA00000211220FFF7D6FC00211320FFF7D2FCE0
:103DB000C820FDF7E1FC41F290611020FFF7CAFC3A
:103DC00040F227211120FFF7C5FC3220FDF7D4FC7B
:103DD0001D211220FFF7BEFC3220FDF7CDFC4FF471
:103DE00000611320FFF7B6FC14212920FFF7B2FC75
:103DF0000B212B20FFF7AEFC3220FDF7BDFC00218C
:103E00002020FFF7A7FC00212120FFF7A3FC0721BA
:103E10003020FFF79FFC40F207713120FFF79AFC3A
:103E200006213220FFF796FC40F204713520FFF79F
:103E300091FC41F604713620FFF78CFC04213720F9
:103E4000FFF788FC00213820FFF784FC40F2067160
:103E50003920FFF77FFC40F201713C20FFF77AFC2C
:103E60000F213D20FFF776FC00215020FFF772FC68
:103E7000EF215120FFF76EFC00215220FFF76AFC72
:103E800040F23F115320FFF765FC4FF41C516020B6
:103E9000FFF760FC01216120FFF75CFC00216A2034
:103EA000FFF758FC00218020FFF754FC00218120FF
:103EB000FFF750FC00218220FFF74CFC00218320FB
:103EC000FFF748FC00218420FFF744FC00218520F7
:103ED000FFF740FC10219020FFF73CFC00219220CE
:103EE000FFF738FC03219320FFF734FC4FF488716F
:103EF0009520FFF72FFC00219720FFF72BFC0021D6
:103F00009820FFF727FC41F218010320FFF722FC5D
:103F1000BDE8104040F273110720FFF71BBC000002
:103F200008B1044801E003481030016841F0400145
:103F3000016070471804004810B580210348FDF760
:103F400011FD012800D0002010BD00000004004831
:103F500000B585B014216846FCF792F980200090E6
:103F6000002001900120029002200390694602483F
:103F7000FDF714FC05B000BD0004004808B104487A
:103F800001E003481030016841F080010160704792
:103F90001804004800B585B014216846FCF770F994
:103FA00080200090112001900020029002200390B8
:103FB00069460248FDF7F2FB05B000BD0004004869
:103FC0007047FDF7DFBC10B594B038216846FCF7A8
:103FD00057F914210EA8FCF753F94FF40070FDF7C0
:103FE00063FD012000900004019002200324CDE92C
:103FF00007041421CDE90A100C900D90099468462D
:10400000FEF746F808B172B6FEE70F20CDE90E04C0
:10401000002010901190129002210EA8FDF7EEFEE4
:10402000002801D072B6FEE714B010BD0248016846
:1040300041F470010160704788ED00E010B504485C
:10404000FEF736FDBDE810400248FEF731BD000026
:10405000D40100206C0200200148FEF729BD0000B9
:10406000D40100202DE9F0430268234B234D244E58
:10407000244C4FF08049984207D0484505D0A842CB
:1040800003D0B04201D0A04203D122F070074A68A9
:104090003A431D4FDFF874C0DFF8748098420DD0AA
:1040A00048450BD0A84209D0B04207D0A04205D065
:1040B000B84203D0604501D0404503D122F4407599
:1040C000CA682A434D6922F080022A4302608A6846
:1040D000C2620A688262984207D0A04205D0B84204
:1040E00003D0604501D0404501D109690163012138
:1040F0004161BDE8F0830000002C01400004004055
:1041000000080040003401400040014000440140EC
:104110000048014010B501F01F030121046A9940D5
:104120008C430462016A9A401143016210BD10B5CC
:10413000846842EA032224F47F440A4322438260D3
:1041400010BD00008268034B1A400A4342F0070189
:10415000816070478FFFCFFF2DE9F043026A22F0A4
:1041600001020262056A436882691C4C25F002055F
:1041700022400C6822F0030214438A68194E2A4335
:10418000174D194FDFF864C0DFF86490A84207D0DC
:10419000B04205D0B84203D0604501D0484506D1B1
:1041A00022F00808CA6842EA080222F00402A84283
:1041B00007D0B04205D0B84203D0604501D0484591
:1041C00005D14D6923F440731D438B692B43436034
:1041D0008461496841630262BDE8F0838FFFFEFF9E
:1041E000002C0140003401400040014000440140E7
:1041F00000480140F0B5026A22F010020262056A2E
:1042000042688369194C1B4E23400C6823F44073A9
:1042100043EA042425F020038D6843EA0513144D76
:10422000A84201D0B04206D1CF6823F0800343EA10
:10423000071323F04003A8420AD0B04208D00E4D25
:10424000A84205D00D4DA84202D00D4DA84207D17D
:104250004D6922F4406242EA85028D6942EA850294
:1042600042608461496881630362F0BDFF8FFFFE95
:10427000002C014000340140004001400044014056
:1042800000480140F0B5026A22F480720262056AB9
:104290004368C269194C1B4E22400C6822F003028D
:1042A000144325F400728D6842EA0522144DA84299
:1042B00001D0B04206D1CF6822F4006242EA072260
:1042C00022F48062A8420AD0B04208D00E4DA84223
:1042D00005D00E4DA84202D00D4DA84207D14D6920
:1042E00023F4405343EA05138D6943EA0513436001
:1042F000C4614968C1630262F0BD00008FFFFEFF28
:10430000002C0140003401400040014000440140C5
:1043100000480140F0B5026A22F480520262056A48
:104320004268C369194C1B4E23400C6823F4407348
:1043300043EA042425F400538D6843EA0533144D01
:10434000A84201D0B04206D1CF6823F4004343EA2B
:10435000073323F48043A8420AD0B04208D00E4D60
:10436000A84205D00D4DA84202D00D4DA84207D15C
:104370004D6922F4404242EA85128D6942EA851273
:104380004260C461496801640362F0BDFF8FFFFEB3
:10439000002C014000340140004001400044014035
:1043A0000048014030B5026A22F480320262046A99
:1043B0004268036D114D2B400D681D4324F40033FA
:1043C0000C8943EA04430E4CA0420BD00D4CA04292
:1043D00008D00D4CA04205D00C4CA04202D00C4C91
:1043E000A04204D14C6922F4803242EA04224260A5
:1043F000056549688164036230BD00008FFFFEFFE0
:10440000002C0140003401400040014000440140C4
:104410000048014030B5026A22F480120262046A48
:104420004268036D114D24F400142B400D6843EADB
:1044300005230D8944EA05540D4DA8420BD00D4DBE
:10444000A84208D00C4DA84205D00C4DA84202D07D
:104450000B4DA84204D14D6922F4802242EA852204
:10446000426003654968C164046230BDFF8FFFFE8E
:10447000002C014000340140004001400044014054
:104480000048014010B5036A046A24F00104046284
:10449000846924F0F00444EA021423F00A020A4377
:1044A0008461026210BD000070B5046A24F001044A
:1044B00004628469056A124EB0420ED0B0F1804F9A
:1044C0000BD0104EB04208D00F4EB04205D00F4E68
:1044D000B04202D00E4EB04203D124F00304144384
:1044E00001E044F001041A0724F0F00444EA1262E7
:1044F00025F00A0301F00A0119438261016270BDCF
:10450000002C01400004004000080040003401403D
:104510000040014010B5036A23F010030362836971
:10452000046A23F4704343EA023224F0A00343EA0E
:1045300001118261016210BD30B5046A24F01004DB
:1045400004628469056A24F4407444EA022222F475
:1045500070444FF6FF7202EA03322243A02425F092
:10456000A00304EA011119438261016230BD000019
:1045700030B5416EB9B1026891689268C1F3426189
:104580000B4B520F9C5CE50003F10804A25CB5FBE9
:10459000F2F2A0F86A205A5C615CD200B2FBF1F141
:1045A000A0F8681030BD0121A0F86A10F8E70000FB
:1045B0009869000890F82810C90706D001684A6871
:1045C000C36A22F400321A434A6090F8281089071F
:1045D00006D501684A68036B22F480321A434A60A8
:1045E00090F82810490706D501684A68436B22F401
:1045F00080221A434A6090F82810090706D50168FE
:104600004A68836B22F400421A434A6090F82810EB
:10461000C90606D501688A68C36B22F480521A4322
:104620008A6090F82810890606D501688A68036CAC
:1046300022F400521A438A6090F82810490611D5D6
:1046400001684A68436C22F480121A434A60416C44
:10465000B1F5801F06D101684A68836C22F4C0025C
:104660001A434A6090F82810090606D501684A687E
:10467000C06C22F4002202434A607047F8B500265D
:104680000446C0F88C60FDF777F90546206800689D
:104690006FF07E47000708D52B4600224FF400112B
:1046A0002046009700F054F960B920680068400780
:1046B0000AD52B4600224FF480012046009700F0D7
:1046C00047F908B10320F8BD2020C4F88400C4F8DD
:1046D000880044F86C6F00202675F8BD2DE9F04184
:1046E0000446016880682269E36910436269002515
:1046F0001A431043DFF82CC20A688B4B1A4002435E
:104700000A6020684168E26821F440511143416029
:104710002168A069614501D0226A10438A68834BF1
:104720001A4002438A602068C16A626A21F00F0160
:104730001143C1627E4923687E488B420DD1D0F877
:10474000880010F0030006D0012855D0022842D07E
:1047500003283FD152E001203DE077498B420BD145
:10476000D0F8880010F00C0035D0042833D0082889
:1047700040D00C282ED141E070498B420BD1D0F8AB
:10478000880010F0300026D0102835D0202831D0F5
:1047900030281FD132E06A498B420BD1D0F8880013
:1047A00010F0C00017D0402826D0802822D0C02882
:1047B00010D123E063450DD1D0F8880010F440609B
:1047C00009D0B0F5806F17D0B0F5006F12D0B0F5FA
:1047D000406F13D010205B4A5B4F00264FF400411E
:1047E000634539D160B102280DD004280DD00828C6
:1047F00031D10EE00220EEE70420ECE70820EAE7E2
:10480000FDF7EAFB03E0114603E0FDF709FC0100B8
:104810007DD0606A37F810206768B1FBF2F007EBD3
:10482000470383426CD8B0EB073F69D800230846A2
:104830001946FBF7EDFC090241EA10610202780813
:10484000101871413A460023FBF7E2FC3F4AA0F5FD
:104850004071914259D953E0E3694FF6EF788B42AA
:104860002DD109284CD2DFE800F005080D4B274B6D
:104870004B4B0E00FDF7B0FB01E0FDF7BFFB010065
:1048800001D144E01146606A37F81000B1FBF0F046
:104890004100606801EB5001B1FBF0F080B2A0F183
:1048A000100141452CD84FF6F0710140C0F3420091
:1048B00001432068C1602AE0FDF7B2FBDFE7092869
:1048C0001ED2DFE800F005080D1D1F1D1D1D0E0086
:1048D000FDF782FB01E0FDF791FB010001D116E03D
:1048E0001146606A37F81000B1FBF0F1606801EB27
:1048F0005001B1FBF0F080B2A0F11001414504D9A4
:10490000012504E0FDF78CFBE7E72168C860012082
:10491000A4F86A0024F8680F2846A660E660BDE89F
:10492000F081000000800040F369FFCFFFF4FF1129
:1049300000380140001002400044004000480040A0
:10494000004C00400024F40080690008FFFC0F00C8
:104950002DE9F0479A4617460E4604464FF00009E7
:104960004FF02008089D39E0681C37D0FDF704F8A7
:10497000A0EB0A00A84222D80DB3206801684907BD
:104980002CD5C069C043000528D421684FF40060CD
:1049900008622068016821F4D07101602068816894
:1049A00021F001018160C4F88480C4F88880C4F8D3
:1049B0008C8000BF84F880900320BDE8F0872068D9
:1049C000016821F4D07101602068816821F0010143
:1049D0008160C4F88480C4F88880EBE72068C069EF
:1049E00036EA000004D00020B842BDD00020E4E741
:1049F0000120F9E7FEE700000FB4054B10B503A94D
:104A0000044A029800F0FEF810BC5DF814FB0000A8
:104A10002D540008380000200FB4084B10B504A92D
:104A200002AA039800F0EEF8044602A9002000F064
:104A300080FC204610BC5DF814FB000033530008D6
:104A40000907090E002804DB00F1E02080F80014BB
:104A5000704700F00F0000F1E02080F8141D70474F
:104A600002E008C8121F08C1002AFAD17047704737
:104A7000002001E001C1121F002AFBD17047000095
:104A80002DE9FF5F82B00021DDE90430020DDDF881
:104A900040B0034318D044F61050A2F2FF32424314
:104AA0001514119801281FD0A5EB0B00401C5FEADC
:104AB000000A4FF000064E4FDFF83891B0465046DE
:104AC00015D5CAF1000413E0119801244AA3012866
:104AD00001D16FEA0B010298119AC0E90031C0E9D7
:104AE000024206B0BDE8F09FCBF10000DFE70446CC
:104AF0000021404A491842EB0450CDE9001012E071
:104B0000E00707D032463B4640464946FBF7B2FC39
:104B10008046894632463B4610461946FBF7AAFCBA
:104B200006460F466410002CEAD1DDE90401DDE9F8
:104B30000023BAF1000F06DAFBF79CFC42464B4615
:104B4000FBF798FC05E0FBF707FD42464B46FBF7F9
:104B500003FD04460E460022284BFBF785FD03D8D3
:104B60004FF0FF30014607E00022254B204631463A
:104B7000FBF7D9FBFBF75FFD102409E0002C0ADBF3
:104B80000A220023FBF744FB039B30321A55641EB4
:104B900050EA0102F2D1641C039AC4F111031444D7
:104BA000119A012A03D0012208430DD10AE00843DB
:104BB00004D000204FF0110B119072E7A3EB0B050E
:104BC0006D1E0DE05B4504DD4FF0000205F10105AF
:104BD00004E003DA4FF00002A5F10105002AECD051
:104BE00002981199C0E90231C0E9004579E7000057
:104BF000000014400000F03F300000000000F043CF
:104C00000000E03F2DE9FF4F95B09B4689460646E0
:104C100000250FE2252877D100242746F84A0121F4
:104C2000059400E0044316F8013F203B01FA03F02D
:104C30001042F7D130782A2811D06FF02F03307846
:104C4000A0F13002092A16D8059A44F0020402EBBA
:104C5000820203EB42021044761C0590EFE759F8FC
:104C6000042B0592002A03DA504244F400540590C4
:104C700044F00204761C30782E2816D116F8010F65
:104C800044F004042A280DD06FF02F023078A0F1F0
:104C90003003092B09D807EB870302EB4303C7183E
:104CA000761CF3E759F8047B761C30786C280FD01B
:104CB00006DC4C2817D068280DD06A2814D104E0EF
:104CC000742810D07A280FD10DE044F400140AE0C3
:104CD00044F4801401E044F440147278824202D11A
:104CE00004F58014761C761C307866280BD013DC13
:104CF000582877D009DC002875D04528F6D04628FA
:104D0000F4D047281AD19DE118E0632835D06428F3
:104D100079D0652812D195E1702873D008DC672816
:104D2000F1D069286FD06E280DD06F2806D1B5E07C
:104D300073282CD0752875D0782874D05A461799C6
:104D400090476D1C75E1C4F30250022809D0032876
:104D50000DD0D9F8001004280DD00D6009F1040918
:104D600067E1D9F80010EA17C1E90052F6E7D9F86F
:104D700000100D80F2E70D70F0E719F8041B8DF8B4
:104D8000001000208DF80100EA46012003E059F8E8
:104D900004AB4FF0FF3061074FF0000102D40DE08B
:104DA00008F101018846B9420FDA8045F8DB1AF8AC
:104DB00008100029F4D108E008F101018846814279
:104DC000FADB1AF808100029F6D105985B46A0EB2B
:104DD000080721463846179A00F094FA284400EB59
:104DE000080507E04DE029E10DE01AF8010B5A46ED
:104DF00017999047B8F10108F7D25B46214638462B
:104E0000179A13E142E00A220092C4F302524FF0D3
:104E1000000A022A08D059F804CB032A4FEAEC71A1
:104E20000AD00DE029E02AE009F1070121F007028C
:104E3000F2E802C1914609E00FFA8CFC4FEAEC71EE
:104E4000042A03D14FFA8CFC4FEAEC71002907DAEF
:104E50000A460021DCF1000C61EB02012D2202E088
:104E6000220504D52B228DF80420012203E0E2075D
:104E700001D02022F7E7904659E00A2102E01022F3
:104E80000DE010214FF0000A00910BE010224FF0CE
:104E9000000A44F004040827009203E008224FF0BF
:104EA000000A0092C4F30252022A05D059F804CB3A
:104EB0000021032A08D009E009F1070121F00702C7
:104EC000F2E802C1914605E01FFA8CFC042A01D1E8
:104ED0000CF0FF0C4FF00008220728D5702806D0F0
:104EE000009B83F0100353EA0A0305D00EE0402232
:104EF0008DF80420012208E05CEA010206D030228D
:104F00008DF804208DF8050002229046009B83F066
:104F1000080353EA0A030AD15CEA010201D16207DD
:104F200005D530228DF804204FF001087F1E582847
:104F300004D034A003900EA802900DE036A0F9E74B
:104F400053466046009AFBF763F984460398825CF7
:104F50000298401E029002705CEA0100F0D10298B3
:104F600006A9081A00F1200A600702D524F480344B
:104F700000E00127574502DDA7EB0A0000E0002012
:104F800000EB0A01009005984144401A0590E003A7
:104F900006D45B462146179A059800F0B3F90544FC
:104FA000002706E001A85A46C05D179990476D1C7E
:104FB0007F1C4745F6DBE0030CD55B462146179A7C
:104FC000059800F09FF9054404E030205A461799EF
:104FD00090476D1C0099481E00900029F5DC08E000
:104FE000029802995A460078491C029117999047F5
:104FF0006D1CBAF10001AAF1010AF1DC65E10000C3
:10500000092801003031323334353637383961629E
:105010006364656600000000303132333435363762
:1050200038394142434445460000000000F058F939
:105030000544761C307800287FF4ECAD19B0284682
:10504000BDE8F08F620700D4062709F1070222F0BD
:10505000070CFCE80223E14603F000485FEA080C75
:1050600002D00FF2702C0DE05FEA045C02D50FF263
:10507000682C07E05FEAC47C02D00FF2602C01E0EC
:10508000AFF2700C4FF0FF3823F00043CDF850C062
:1050900065280CD006DC452809D046281DD04728B5
:1050A0003DD13DE0662818D067287ED138E0002148
:1050B000112F01DB112000E0781CCDE9000106A9C9
:1050C0000EA8FFF7DDFCDDE90F010E9A0391002128
:1050D000009207F1010A04914DE04FF00040009763
:1050E000CDE9011006A90EA8FFF7CAFCDDE90F0201
:1050F00003920E9B11990022DDF80CA000930492FC
:1051000011B9791C00EB010AB7EB0A0004D4C0F115
:10511000FF3007F1010A0490AAEB0700019044E078
:10512000012F00DA01270021112F01DD112000E0FD
:105130003846CDE9000106A90EA8FFF7A1FCDDE97C
:105140000F010E9A0391002104910092BA462107A3
:105150000CD40399514500DA8A46BAF1010F05DDF6
:10516000009AAAF10101515C302908D0B84202DA54
:1051700010F1040F06DA0121CDE9011015E0AAF1C2
:105180000101E9E7002805DC049901440491AAEB38
:10519000000102E0411C514500DD8A460499401A95
:1051A000401C01904FF000400290200704D4019869
:1051B000504501DBCDF8048000208DF84F000298A7
:1051C0000DF14F07B0F1004F25D02B200E90029823
:1051D0004FF0020800280CDA404202902D200E9079
:1051E00007E00A210298FBF769F83031029007F8CE
:1051F000011DB8F10001A8F10108F2DC02980028B5
:10520000EFD1791E0E980870307800F0200040F041
:10521000450007F8020D12A8C01B00F107081498FA
:10522000007800B1012000EB0A01019801EBE07168
:1052300005984144401A401E0590E00306D45B46A1
:105240002146179A059800F05DF8054414980078F7
:1052500018B15A46179990476D1CE00324D55B4658
:105260002146179A059800F04DF805441CE0049873
:10527000002807DBDDE90301884203DD0098405C7C
:10528000179901E0179930205A469047049805F184
:105290000105401C04900198401E019004D12E206D
:1052A0005A46179990476D1CBAF10001AAF1010AFC
:1052B000DDDC05E017F8010B5A46179990476D1C85
:1052C000B8F10001A8F10108F4DC5B462146179A09
:1052D0000598ABE62D0000002B0000002000000028
:1052E0002DE9F041044600251E461746880404D4E3
:1052F00005E039462020B0476D1C641EF9D52846CC
:10530000BDE8F0812DE9F041044600251E46904697
:10531000C80301D5302700E02027880404D505E024
:1053200041463846B0476D1C641EF9D52846BDE895
:10533000F0810A68531C0B6010707047174910B554
:10534000174AD1ED020A91ED030A002002F1780319
:1053500052F8204001EE104A53F82040401CB8EEAD
:10536000411AC0B21E2871EE200A01EE104AB8EEB2
:10537000411A31EE000AEBD9B3EE0E1AC0EE811AD3
:10538000DFED080A61EEA01AC1ED021AC0EE011AA3
:1053900021EEA00A81ED030A10BD00001C000020D0
:1053A000A80300203333533A002100E0491C814216
:1053B000FCD3704710B50446FDF7F0FFA020FDF7C1
:1053C000AEFFFDF794FF2046FDF7A9FFFDF78FFF25
:1053D000FDF7FFFFFDF7E2FFA120FDF7A0FFFDF7BE
:1053E00086FFFDF75DFF0446FDF7C0FFFDF7F1FF07
:1053F000204610BD70B50D460446FDF7CFFFA02036
:10540000FDF78DFFFDF773FF2046FDF788FFFDF7E1
:105410006EFF2846FDF783FFFDF769FFFDF7D9FF13
:10542000BDE870400F20FCF7A7B9000013B50A23B0
:10543000012269460248FDF7BDFE00981CBD000030
:10544000B802002070B50E4D002401212846FCF75B
:1054500089FA00B9012402212846FCF783FA00B931
:10546000022404212846FCF77DFA00B90324012117
:105470004FF09040FCF776FA00B90424204670BD46
:105480000004004870B5FFF7DDFF374A0025374CB0
:10549000012128B913689B1B142B01D3217065804F
:1054A00012682278012A12D0022A15D0032A2ED09F
:1054B000042A10D162880A2A0DD3A8B3012843D048
:1054C000022844D0032846D0042846D002E008B180
:1054D000022037E0658070BD6288022AFBD318B3D2
:1054E000012806D0022807D0032809D0042809D0B3
:1054F0000BE06068401C01E06068401E606004E0F2
:105500001BA000E01BA0FFF777FA03201AE06288D7
:105510001E2AE0D340B1012807D0022808D0032872
:105520000AD004280AD00CE01BE06068401C01E0AF
:105530006068401E606004E00DA000E00DA0FFF771
:105540005BFA04202070C5E76068401C01E06068D9
:10555000401E6060BEE706A000E006A0FFF74CFA20
:10556000B8E72170B6E70000140000202C000020EE
:10557000330000003400000010B523A12748FFF7D6
:105580004BFA26490020FDF7D3FF254C25A12348DF
:105590006268FFF741FA21491820FDF7C9FF274843
:1055A00027A102681D48FFF737FA1C493020FDF794
:1055B000BFFF28480068FAF76EFE41EC100B26A1E9
:1055C00053EC102B1548FFF727FA14494820FDF734
:1055D000AFFF29480068FAF75EFE41EC100B27A1E7
:1055E00053EC102B0D48FFF717FA0C496020FDF71C
:1055F0009FFF2AA10948A268FFF70EFABDE81040F4
:1056000006497820FDF794BF20202020202020206C
:105610004C434420202020202020200098040020FB
:105620002C00002020636F756E743A2564202020C2
:10563000202020202020202020000000200000200A
:10564000206672653A25642020202020202020201A
:105650002020200024000020206164633120523388
:10566000383A25312E32662020202020202020208C
:1056700020202020200000002800002020616463FA
:10568000323A5233372025312E3266202020202016
:105690002020202020202020200000002066656E91
:1056A000673A256420202020202020202020202050
:1056B00000000000084910B56FEA00200860074CA0
:1056C000012204212046FCF752F920460022BDE8C1
:1056D00010400421FCF74BB914080048000C0048A6
:1056E000FCF758F9FEF76FFCFEF750F9FEF720F9CA
:1056F000FEF7E6F9FEF752FAFEF718FAFEF7B0F9F0
:10570000FEF790F8FEF7D6F81048FCF7AFFF04213B
:105710000F48FDF7C7FB32204107886300210D4881
:10572000FDF732F91E220C490C48FBF7A9FE1E2298
:105730000B490C48FBF7A4FE00F016F8FFF71CFF1E
:10574000FFF7A0FEFFF7FAFDF8E70000D401002004
:10575000200200206C020020A80300203C00002052
:1057600020040020A800002010B5FDF723FF002032
:10577000FDF778FE0020FDF777FF4FF6FF70FDF78D
:1057800087FFFDF777FD08A0FFF736F964210220B7
:10579000FFF730FE0020FFF70DFE04490860BDE86A
:1057A00010400020FFF786BF3500000034000020C5
:1057B00000000000000000000000000000000000E9
:1057C00000000000000000000000000000000000D9
:1057D00000000000000000000000000000000000C9
:1057E0000000800180018001800180018001800132
:1057F00080018001800180018001800100000000A3
:105800008001800100000000000000000000000096
:1058100000000000CC00CC00CC00CC00CC00CC00C0
:105820000000000000000000000000000000000078
:105830000000000000000000000000000000000068
:10584000000000000000000000000000600C600C80
:10585000600C30063006FE1FFE1F300638071803A6
:10586000FE1FFE1F180318038C018C018C01000021
:1058700000008000E003F80F9C0E8C1C8C188C003C
:105880009800F801E007800E801C8C188C189C187A
:10589000B80CF00FE0038000800000000000000062
:1058A0000000000000000E181B0C110C1106110660
:1058B000110311039B018E01C038C06C6044604429
:1058C000304430441844186C0C38000000000000CC
:1058D0000000E001F0033807180618063003F00155
:1058E000F000F8009C310E33061E061C061C063F15
:1058F000FC73F02100000000000000000000000028
:10590000000000000C000C000C000C000C000C004F
:105910000000000000000000000000000000000087
:105920000000000000000000000000000000000077
:105930000000000200038001C000C00060006000A1
:1059400030003000300030003000300030003000D7
:1059500060006000C000C000800100030002000081
:10596000000020006000C0008001800100030003EF
:1059700000060006000600060006000600060006F7
:105980000003000380018001C000600020000000CF
:10599000000000000000000000000000C000C00087
:1059A000D806F807E00130033807000000000000C7
:1059B00000000000000000000000000000000000E7
:1059C00000000000000000000000000080018001D5
:1059D000800180018001FC3FFC3F8001800180014B
:1059E00080018001000000000000000000000000B5
:1059F00000000000000000000000000000000000A7
:105A00000000000000000000000000000000000096
:105A10000000800180010001000180000000000002
:105A20000000000000000000000000000000000076
:105A30000000000000000000E007E0070000000098
:105A40000000000000000000000000000000000056
:105A50000000000000000000000000000000000046
:105A60000000000000000000000000000000000036
:105A70000000C000C00000000000000000000000A6
:105A80000000000C000C00060006000600030003E6
:105A900000038003800180018001C000C000C000BD
:105AA0006000600000000000000000000000000036
:105AB0000000E003F007380E180C0C180C180C1836
:105AC0000C180C180C180C180C180C18180C380E94
:105AD000F007E003000000000000000000000000EC
